{
  "contractName": "EightBallFactory",
  "abi": [
    {
      "anonymous": false,
      "inputs": [
        {
          "indexed": false,
          "internalType": "uint256",
          "name": "ballId",
          "type": "uint256"
        },
        {
          "indexed": false,
          "internalType": "string",
          "name": "question",
          "type": "string"
        },
        {
          "indexed": false,
          "internalType": "string",
          "name": "answer",
          "type": "string"
        }
      ],
      "name": "EightBallAdded",
      "type": "event"
    },
    {
      "inputs": [
        {
          "internalType": "string",
          "name": "_str",
          "type": "string"
        }
      ],
      "name": "askQuestion",
      "outputs": [],
      "stateMutability": "nonpayable",
      "type": "function"
    },
    {
      "inputs": [],
      "name": "_fetchAnswer",
      "outputs": [
        {
          "internalType": "string",
          "name": "",
          "type": "string"
        }
      ],
      "stateMutability": "view",
      "type": "function"
    }
  ],
  "bytecode": "0x60806040526040518060400160405280600581526020017f626c6573730000000000000000000000000000000000000000000000000000008152506002908051906020019061004f929190610062565b5034801561005c57600080fd5b50610166565b82805461006e90610105565b90600052602060002090601f01602090048101928261009057600085556100d7565b82601f106100a957805160ff19168380011785556100d7565b828001600101855582156100d7579182015b828111156100d65782518255916020019190600101906100bb565b5b5090506100e491906100e8565b5090565b5b808211156101015760008160009055506001016100e9565b5090565b6000600282049050600182168061011d57607f821691505b6020821081141561013157610130610137565b5b50919050565b7f4e487b7100000000000000000000000000000000000000000000000000000000600052602260045260246000fd5b6109a5806101756000396000f3fe608060405234801561001057600080fd5b50600436106100365760003560e01c8063602bdec81461003b578063fcb4a01d14610057575b600080fd5b610055600480360381019061005091906105dd565b610075565b005b61005f610440565b60405161006c91906106d1565b60405180910390f35b600060606000600842338560405160200161009293929190610694565b6040516020818303038152906040528051906020012060001c6100b59190610893565b905060008114156100fd576040518060400160405280600381526020017f59657300000000000000000000000000000000000000000000000000000000008152509150610327565b6001811415610143576040518060400160405280600281526020017f4e6f0000000000000000000000000000000000000000000000000000000000008152509150610326565b6002811415610189576040518060400160405280600581526020017f4d617962650000000000000000000000000000000000000000000000000000008152509150610325565b60038114156101cf576040518060400160405280600481526020017f4e474d49000000000000000000000000000000000000000000000000000000008152509150610324565b6004811415610215576040518060400160405280600581526020017f5741474d490000000000000000000000000000000000000000000000000000008152509150610323565b600581141561025b576040518060400160405280600d81526020017f496620796f752073617920736f000000000000000000000000000000000000008152509150610322565b60068114156102a1576040518060400160405280600881526020017f4675636b205965730000000000000000000000000000000000000000000000008152509150610321565b60078114156102e7576040518060400160405280600781526020017f4675636b204e6f000000000000000000000000000000000000000000000000008152509150610320565b6040518060400160405280600781526020017f4675636b2075700000000000000000000000000000000000000000000000000081525091505b5b5b5b5b5b5b5b6000604051806040016040528086815260200184815250908060018154018082558091505060019003906000526020600020906002020160009091909190915060008201518160000190805190602001906103839291906104d2565b5060208201518160010190805190602001906103a09291906104d2565b505050600080805490509050336001600083815260200190815260200160002060006101000a81548173ffffffffffffffffffffffffffffffffffffffff021916908373ffffffffffffffffffffffffffffffffffffffff1602179055507f69a28a5479ee66d07e6af49e251a4918e1ef2f9ca5b6ab275e2cbe2c5bdd7814818685604051610431939291906106f3565b60405180910390a15050505050565b60606002805461044f90610833565b80601f016020809104026020016040519081016040528092919081815260200182805461047b90610833565b80156104c85780601f1061049d576101008083540402835291602001916104c8565b820191906000526020600020905b8154815290600101906020018083116104ab57829003601f168201915b5050505050905090565b8280546104de90610833565b90600052602060002090601f0160209004810192826105005760008555610547565b82601f1061051957805160ff1916838001178555610547565b82800160010185558215610547579182015b8281111561054657825182559160200191906001019061052b565b5b5090506105549190610558565b5090565b5b80821115610571576000816000905550600101610559565b5090565b600061058861058384610769565b610738565b9050828152602081018484840111156105a057600080fd5b6105ab8482856107f1565b509392505050565b600082601f8301126105c457600080fd5b81356105d4848260208601610575565b91505092915050565b6000602082840312156105ef57600080fd5b600082013567ffffffffffffffff81111561060957600080fd5b610615848285016105b3565b91505092915050565b61062f61062a826107b5565b610865565b82525050565b600061064082610799565b61064a81856107a4565b935061065a818560208601610800565b61066381610951565b840191505092915050565b610677816107e7565b82525050565b61068e610689826107e7565b610889565b82525050565b60006106a0828661067d565b6020820191506106b0828561061e565b6014820191506106c0828461067d565b602082019150819050949350505050565b600060208201905081810360008301526106eb8184610635565b905092915050565b6000606082019050610708600083018661066e565b818103602083015261071a8185610635565b9050818103604083015261072e8184610635565b9050949350505050565b6000604051905081810181811067ffffffffffffffff8211171561075f5761075e610922565b5b8060405250919050565b600067ffffffffffffffff82111561078457610783610922565b5b601f19601f8301169050602081019050919050565b600081519050919050565b600082825260208201905092915050565b60006107c0826107c7565b9050919050565b600073ffffffffffffffffffffffffffffffffffffffff82169050919050565b6000819050919050565b82818337600083830152505050565b60005b8381101561081e578082015181840152602081019050610803565b8381111561082d576000848401525b50505050565b6000600282049050600182168061084b57607f821691505b6020821081141561085f5761085e6108f3565b5b50919050565b600061087082610877565b9050919050565b600061088282610962565b9050919050565b6000819050919050565b600061089e826107e7565b91506108a9836107e7565b9250826108b9576108b86108c4565b5b828206905092915050565b7f4e487b7100000000000000000000000000000000000000000000000000000000600052601260045260246000fd5b7f4e487b7100000000000000000000000000000000000000000000000000000000600052602260045260246000fd5b7f4e487b7100000000000000000000000000000000000000000000000000000000600052604160045260246000fd5b6000601f19601f8301169050919050565b60008160601b905091905056fea2646970667358221220c0c6074790a47856db3d384064dc1960735562c5113342a4827e21892fbf6b6b64736f6c63430008000033",
  "immutableReferences": {},
  "source": "pragma solidity >=0.4.22 <0.9.0;\r\n\r\ncontract EightBallFactory {\r\n    event EightBallAdded(uint256 ballId, string question, string answer);\r\n\r\n    struct EightBall {\r\n        string question;\r\n        string answer;\r\n    }\r\n\r\n    EightBall[] private eightballs;\r\n    mapping(uint256 => address) private EightBallToOwner;\r\n\r\n    function askQuestion(string memory _str) public {\r\n        uint256 randNonce = 0;\r\n        string memory randomAnswer;\r\n        uint256 random = uint256(\r\n            keccak256(abi.encodePacked(block.timestamp, msg.sender, randNonce))\r\n        ) % 8;\r\n        if (random == 0) {\r\n            randomAnswer = \"Yes\";\r\n        } else if (random == 1) {\r\n            randomAnswer = \"No\";\r\n        } else if (random == 2) {\r\n            randomAnswer = \"Maybe\";\r\n        } else if (random == 3) {\r\n            randomAnswer = \"NGMI\";\r\n        } else if (random == 4) {\r\n            randomAnswer = \"WAGMI\";\r\n        } else if (random == 5) {\r\n            randomAnswer = \"If you say so\";\r\n        } else if (random == 6) {\r\n            randomAnswer = \"Fuck Yes\";\r\n        } else if (random == 7) {\r\n            randomAnswer = \"Fuck No\";\r\n        } else {\r\n            randomAnswer = \"Fuck up\";\r\n        }\r\n        eightballs.push(EightBall(_str, randomAnswer));\r\n        uint256 id = eightballs.length;\r\n        EightBallToOwner[id] = msg.sender;\r\n        emit EightBallAdded(id, _str, randomAnswer);\r\n    }\r\n\r\n    string bless = \"bless\";\r\n\r\n    function _fetchAnswer() public view returns (string memory) {\r\n        return bless;\r\n    }\r\n}\r\n",
  "sourcePath": "C:\\Users\\Nathan\\Documents\\GitHub\\Augminted-website\\augminted-website\\augminted-contract\\contracts\\EightBallFactory.sol",
  "compiler": {
    "name": "solc",
    "version": "0.8.0+commit.c7dfd78e.Emscripten.clang"
  },
  "schemaVersion": "3.4.2",
  "updatedAt": "2021-08-10T19:03:05.337Z",
  "devdoc": {
    "kind": "dev",
    "methods": {},
    "version": 1
  },
  "userdoc": {
    "kind": "user",
    "methods": {},
    "version": 1
  }
}