{
  "contractName": "HelloWorld",
  "abi": [
    {
      "inputs": [],
      "stateMutability": "nonpayable",
      "type": "constructor"
    },
    {
      "anonymous": false,
      "inputs": [
        {
          "indexed": false,
          "internalType": "address",
          "name": "_sender",
          "type": "address"
        },
        {
          "indexed": false,
          "internalType": "string",
          "name": "_message",
          "type": "string"
        }
      ],
      "name": "MessageSaid",
      "type": "event"
    },
    {
      "inputs": [
        {
          "internalType": "string",
          "name": "_message",
          "type": "string"
        }
      ],
      "name": "say",
      "outputs": [],
      "stateMutability": "nonpayable",
      "type": "function"
    }
  ],
  "bytecode": "0x608060405234801561001057600080fd5b50610310806100206000396000f3fe608060405234801561001057600080fd5b506004361061002b5760003560e01c8063d5c6130114610030575b600080fd5b61004a600480360381019061004591906100f0565b61004c565b005b7f43480a1929b409cd2b07284b7c4fb9876bbfd173b3d459e69fb351ec1b2cc30a338260405161007d929190610179565b60405180910390a150565b600061009b610096846101da565b6101a9565b9050828152602081018484840111156100b357600080fd5b6100be848285610258565b509392505050565b600082601f8301126100d757600080fd5b81356100e7848260208601610088565b91505092915050565b60006020828403121561010257600080fd5b600082013567ffffffffffffffff81111561011c57600080fd5b610128848285016100c6565b91505092915050565b61013a81610226565b82525050565b600061014b8261020a565b6101558185610215565b9350610165818560208601610267565b61016e816102c9565b840191505092915050565b600060408201905061018e6000830185610131565b81810360208301526101a08184610140565b90509392505050565b6000604051905081810181811067ffffffffffffffff821117156101d0576101cf61029a565b5b8060405250919050565b600067ffffffffffffffff8211156101f5576101f461029a565b5b601f19601f8301169050602081019050919050565b600081519050919050565b600082825260208201905092915050565b600061023182610238565b9050919050565b600073ffffffffffffffffffffffffffffffffffffffff82169050919050565b82818337600083830152505050565b60005b8381101561028557808201518184015260208101905061026a565b83811115610294576000848401525b50505050565b7f4e487b7100000000000000000000000000000000000000000000000000000000600052604160045260246000fd5b6000601f19601f830116905091905056fea26469706673582212202d8ae6408b6a188ce4c4b93b0136d4b1dcf670a096b00273d9a867a914e4007864736f6c63430008000033",
  "immutableReferences": {},
  "source": "// SPDX-License-Identifier: MIT\r\npragma solidity >=0.4.22 <0.9.0;\r\n\r\ncontract HelloWorld {\r\n    constructor() public {}\r\n\r\n    event MessageSaid(address _sender, string _message);\r\n\r\n    function say(string memory _message) public {\r\n        emit MessageSaid(msg.sender, _message);\r\n    }\r\n}\r\n",
  "sourcePath": "C:\\Users\\Nathan\\Documents\\GitHub\\Augminted-website\\augminted-website\\augminted-contract\\contracts\\HelloWorld.sol",
  "compiler": {
    "name": "solc",
    "version": "0.8.0+commit.c7dfd78e.Emscripten.clang"
  },
  "schemaVersion": "3.4.2",
  "updatedAt": "2021-08-10T19:03:05.346Z",
  "devdoc": {
    "kind": "dev",
    "methods": {},
    "version": 1
  },
  "userdoc": {
    "kind": "user",
    "methods": {},
    "version": 1
  }
}