{
  "contractName": "EightBallFactory",
  "abi": [
    {
      "anonymous": false,
      "inputs": [
        {
          "indexed": false,
          "internalType": "uint256",
          "name": "ballId",
          "type": "uint256"
        },
        {
          "indexed": false,
          "internalType": "string",
          "name": "question",
          "type": "string"
        },
        {
          "indexed": false,
          "internalType": "string",
          "name": "answer",
          "type": "string"
        }
      ],
      "name": "EightBallAdded",
      "type": "event"
    },
    {
      "constant": false,
      "inputs": [
        {
          "internalType": "string",
          "name": "_str",
          "type": "string"
        }
      ],
      "name": "askQuestion",
      "outputs": [],
      "payable": false,
      "stateMutability": "nonpayable",
      "type": "function"
    },
    {
      "constant": true,
      "inputs": [],
      "name": "_fetchAnswer",
      "outputs": [
        {
          "internalType": "string",
          "name": "",
          "type": "string"
        }
      ],
      "payable": false,
      "stateMutability": "view",
      "type": "function"
    }
  ],
  "bytecode": "0x60806040526040518060400160405280600581526020017f626c6573730000000000000000000000000000000000000000000000000000008152506002908051906020019061004f929190610062565b5034801561005c57600080fd5b50610107565b828054600181600116156101000203166002900490600052602060002090601f016020900481019282601f106100a357805160ff19168380011785556100d1565b828001600101855582156100d1579182015b828111156100d05782518255916020019190600101906100b5565b5b5090506100de91906100e2565b5090565b61010491905b808211156101005760008160009055506001016100e8565b5090565b90565b6107d5806101166000396000f3fe608060405234801561001057600080fd5b50600436106100365760003560e01c8063602bdec81461003b578063fcb4a01d146100f6575b600080fd5b6100f46004803603602081101561005157600080fd5b810190808035906020019064010000000081111561006e57600080fd5b82018360208201111561008057600080fd5b803590602001918460018302840111640100000000831117156100a257600080fd5b91908080601f016020809104026020016040519081016040528093929190818152602001838380828437600081840152601f19601f820116905080830192505050505050509192919290505050610179565b005b6100fe610659565b6040518080602001828103825283818151815260200191508051906020019080838360005b8381101561013e578082015181840152602081019050610123565b50505050905090810190601f16801561016b5780820380516001836020036101000a031916815260200191505b509250505060405180910390f35b6000809050606060006008423385604051602001808481526020018373ffffffffffffffffffffffffffffffffffffffff1673ffffffffffffffffffffffffffffffffffffffff1660601b815260140182815260200193505050506040516020818303038152906040528051906020012060001c816101f457fe5b069050600081141561023d576040518060400160405280600381526020017f59657300000000000000000000000000000000000000000000000000000000008152509150610467565b6001811415610283576040518060400160405280600281526020017f4e6f0000000000000000000000000000000000000000000000000000000000008152509150610466565b60028114156102c9576040518060400160405280600581526020017f4d617962650000000000000000000000000000000000000000000000000000008152509150610465565b600381141561030f576040518060400160405280600481526020017f4e474d49000000000000000000000000000000000000000000000000000000008152509150610464565b6004811415610355576040518060400160405280600581526020017f5741474d490000000000000000000000000000000000000000000000000000008152509150610463565b600581141561039b576040518060400160405280600d81526020017f496620796f752073617920736f000000000000000000000000000000000000008152509150610462565b60068114156103e1576040518060400160405280600881526020017f4675636b205965730000000000000000000000000000000000000000000000008152509150610461565b6007811415610427576040518060400160405280600781526020017f4675636b204e6f000000000000000000000000000000000000000000000000008152509150610460565b6040518060400160405280600781526020017f4675636b2075700000000000000000000000000000000000000000000000000081525091505b5b5b5b5b5b5b5b60006040518060400160405280868152602001848152509080600181540180825580915050906001820390600052602060002090600202016000909192909190915060008201518160000190805190602001906104c59291906106fb565b5060208201518160010190805190602001906104e29291906106fb565b50505050600080805490509050336001600083815260200190815260200160002060006101000a81548173ffffffffffffffffffffffffffffffffffffffff021916908373ffffffffffffffffffffffffffffffffffffffff1602179055507f69a28a5479ee66d07e6af49e251a4918e1ef2f9ca5b6ab275e2cbe2c5bdd7814818685604051808481526020018060200180602001838103835285818151815260200191508051906020019080838360005b838110156105af578082015181840152602081019050610594565b50505050905090810190601f1680156105dc5780820380516001836020036101000a031916815260200191505b50838103825284818151815260200191508051906020019080838360005b838110156106155780820151818401526020810190506105fa565b50505050905090810190601f1680156106425780820380516001836020036101000a031916815260200191505b509550505050505060405180910390a15050505050565b606060028054600181600116156101000203166002900480601f0160208091040260200160405190810160405280929190818152602001828054600181600116156101000203166002900480156106f15780601f106106c6576101008083540402835291602001916106f1565b820191906000526020600020905b8154815290600101906020018083116106d457829003601f168201915b5050505050905090565b828054600181600116156101000203166002900490600052602060002090601f016020900481019282601f1061073c57805160ff191683800117855561076a565b8280016001018555821561076a579182015b8281111561076957825182559160200191906001019061074e565b5b509050610777919061077b565b5090565b61079d91905b80821115610799576000816000905550600101610781565b5090565b9056fea265627a7a72315820d5ea499d2c1dc7a1033f8839c249c0c1b719dddf9a87e7bd628383282806f87164736f6c63430005100032",
  "source": "pragma solidity >=0.4.22 <0.9.0;\n\ncontract EightBallFactory {\n    event EightBallAdded(uint256 ballId, string question, string answer);\n\n    struct EightBall {\n        string question;\n        string answer;\n    }\n\n    EightBall[] private eightballs;\n    mapping(uint256 => address) private EightBallToOwner;\n\n    function askQuestion(string memory _str) public {\n        uint256 randNonce = 0;\n        string memory randomAnswer;\n        uint256 random = uint256(\n            keccak256(abi.encodePacked(block.timestamp, msg.sender, randNonce))\n        ) % 8;\n        if (random == 0) {\n            randomAnswer = \"Yes\";\n        } else if (random == 1) {\n            randomAnswer = \"No\";\n        } else if (random == 2) {\n            randomAnswer = \"Maybe\";\n        } else if (random == 3) {\n            randomAnswer = \"NGMI\";\n        } else if (random == 4) {\n            randomAnswer = \"WAGMI\";\n        } else if (random == 5) {\n            randomAnswer = \"If you say so\";\n        } else if (random == 6) {\n            randomAnswer = \"Fuck Yes\";\n        } else if (random == 7) {\n            randomAnswer = \"Fuck No\";\n        } else {\n            randomAnswer = \"Fuck up\";\n        }\n        eightballs.push(EightBall(_str, randomAnswer));\n        uint256 id = eightballs.length;\n        EightBallToOwner[id] = msg.sender;\n        emit EightBallAdded(id, _str, randomAnswer);\n    }\n\n    string bless = \"bless\";\n\n    function _fetchAnswer() public view returns (string memory) {\n        return bless;\n    }\n}\n",
  "sourcePath": "/home/chris/_git/augminted-website/augminted-contract/contracts/EightBallFactory.sol",
  "compiler": {
    "name": "solc",
    "version": "0.5.16+commit.9c3226ce.Emscripten.clang"
  },
  "schemaVersion": "3.4.2",
  "updatedAt": "2021-08-10T17:36:39.905Z",
  "networkType": "ethereum",
  "devdoc": {
    "methods": {}
  },
  "userdoc": {
    "methods": {}
  }
}