{
  "contractName": "n0xAlphaArt",
  "abi": [
    {
      "inputs": [],
      "stateMutability": "nonpayable",
      "type": "constructor"
    },
    {
      "anonymous": false,
      "inputs": [
        {
          "indexed": true,
          "internalType": "address",
          "name": "owner",
          "type": "address"
        },
        {
          "indexed": true,
          "internalType": "address",
          "name": "approved",
          "type": "address"
        },
        {
          "indexed": true,
          "internalType": "uint256",
          "name": "tokenId",
          "type": "uint256"
        }
      ],
      "name": "Approval",
      "type": "event"
    },
    {
      "anonymous": false,
      "inputs": [
        {
          "indexed": true,
          "internalType": "address",
          "name": "owner",
          "type": "address"
        },
        {
          "indexed": true,
          "internalType": "address",
          "name": "operator",
          "type": "address"
        },
        {
          "indexed": false,
          "internalType": "bool",
          "name": "approved",
          "type": "bool"
        }
      ],
      "name": "ApprovalForAll",
      "type": "event"
    },
    {
      "anonymous": false,
      "inputs": [
        {
          "indexed": true,
          "internalType": "address",
          "name": "previousOwner",
          "type": "address"
        },
        {
          "indexed": true,
          "internalType": "address",
          "name": "newOwner",
          "type": "address"
        }
      ],
      "name": "OwnershipTransferred",
      "type": "event"
    },
    {
      "anonymous": false,
      "inputs": [
        {
          "indexed": true,
          "internalType": "address",
          "name": "from",
          "type": "address"
        },
        {
          "indexed": true,
          "internalType": "address",
          "name": "to",
          "type": "address"
        },
        {
          "indexed": true,
          "internalType": "uint256",
          "name": "tokenId",
          "type": "uint256"
        }
      ],
      "name": "Transfer",
      "type": "event"
    },
    {
      "inputs": [],
      "name": "_paused",
      "outputs": [
        {
          "internalType": "bool",
          "name": "",
          "type": "bool"
        }
      ],
      "stateMutability": "view",
      "type": "function"
    },
    {
      "inputs": [
        {
          "internalType": "address",
          "name": "to",
          "type": "address"
        },
        {
          "internalType": "uint256",
          "name": "tokenId",
          "type": "uint256"
        }
      ],
      "name": "approve",
      "outputs": [],
      "stateMutability": "nonpayable",
      "type": "function"
    },
    {
      "inputs": [
        {
          "internalType": "address",
          "name": "owner",
          "type": "address"
        }
      ],
      "name": "balanceOf",
      "outputs": [
        {
          "internalType": "uint256",
          "name": "",
          "type": "uint256"
        }
      ],
      "stateMutability": "view",
      "type": "function"
    },
    {
      "inputs": [
        {
          "internalType": "uint256",
          "name": "tokenId",
          "type": "uint256"
        }
      ],
      "name": "getApproved",
      "outputs": [
        {
          "internalType": "address",
          "name": "",
          "type": "address"
        }
      ],
      "stateMutability": "view",
      "type": "function"
    },
    {
      "inputs": [
        {
          "internalType": "address",
          "name": "owner",
          "type": "address"
        },
        {
          "internalType": "address",
          "name": "operator",
          "type": "address"
        }
      ],
      "name": "isApprovedForAll",
      "outputs": [
        {
          "internalType": "bool",
          "name": "",
          "type": "bool"
        }
      ],
      "stateMutability": "view",
      "type": "function"
    },
    {
      "inputs": [],
      "name": "name",
      "outputs": [
        {
          "internalType": "string",
          "name": "",
          "type": "string"
        }
      ],
      "stateMutability": "view",
      "type": "function"
    },
    {
      "inputs": [],
      "name": "owner",
      "outputs": [
        {
          "internalType": "address",
          "name": "",
          "type": "address"
        }
      ],
      "stateMutability": "view",
      "type": "function"
    },
    {
      "inputs": [
        {
          "internalType": "uint256",
          "name": "tokenId",
          "type": "uint256"
        }
      ],
      "name": "ownerOf",
      "outputs": [
        {
          "internalType": "address",
          "name": "",
          "type": "address"
        }
      ],
      "stateMutability": "view",
      "type": "function"
    },
    {
      "inputs": [],
      "name": "renounceOwnership",
      "outputs": [],
      "stateMutability": "nonpayable",
      "type": "function"
    },
    {
      "inputs": [
        {
          "internalType": "address",
          "name": "from",
          "type": "address"
        },
        {
          "internalType": "address",
          "name": "to",
          "type": "address"
        },
        {
          "internalType": "uint256",
          "name": "tokenId",
          "type": "uint256"
        }
      ],
      "name": "safeTransferFrom",
      "outputs": [],
      "stateMutability": "nonpayable",
      "type": "function"
    },
    {
      "inputs": [
        {
          "internalType": "address",
          "name": "from",
          "type": "address"
        },
        {
          "internalType": "address",
          "name": "to",
          "type": "address"
        },
        {
          "internalType": "uint256",
          "name": "tokenId",
          "type": "uint256"
        },
        {
          "internalType": "bytes",
          "name": "_data",
          "type": "bytes"
        }
      ],
      "name": "safeTransferFrom",
      "outputs": [],
      "stateMutability": "nonpayable",
      "type": "function"
    },
    {
      "inputs": [
        {
          "internalType": "address",
          "name": "operator",
          "type": "address"
        },
        {
          "internalType": "bool",
          "name": "approved",
          "type": "bool"
        }
      ],
      "name": "setApprovalForAll",
      "outputs": [],
      "stateMutability": "nonpayable",
      "type": "function"
    },
    {
      "inputs": [
        {
          "internalType": "bytes4",
          "name": "interfaceId",
          "type": "bytes4"
        }
      ],
      "name": "supportsInterface",
      "outputs": [
        {
          "internalType": "bool",
          "name": "",
          "type": "bool"
        }
      ],
      "stateMutability": "view",
      "type": "function"
    },
    {
      "inputs": [],
      "name": "symbol",
      "outputs": [
        {
          "internalType": "string",
          "name": "",
          "type": "string"
        }
      ],
      "stateMutability": "view",
      "type": "function"
    },
    {
      "inputs": [
        {
          "internalType": "uint256",
          "name": "index",
          "type": "uint256"
        }
      ],
      "name": "tokenByIndex",
      "outputs": [
        {
          "internalType": "uint256",
          "name": "",
          "type": "uint256"
        }
      ],
      "stateMutability": "view",
      "type": "function"
    },
    {
      "inputs": [
        {
          "internalType": "address",
          "name": "owner",
          "type": "address"
        },
        {
          "internalType": "uint256",
          "name": "index",
          "type": "uint256"
        }
      ],
      "name": "tokenOfOwnerByIndex",
      "outputs": [
        {
          "internalType": "uint256",
          "name": "",
          "type": "uint256"
        }
      ],
      "stateMutability": "view",
      "type": "function"
    },
    {
      "inputs": [
        {
          "internalType": "uint256",
          "name": "tokenId",
          "type": "uint256"
        }
      ],
      "name": "tokenURI",
      "outputs": [
        {
          "internalType": "string",
          "name": "",
          "type": "string"
        }
      ],
      "stateMutability": "view",
      "type": "function"
    },
    {
      "inputs": [],
      "name": "totalSupply",
      "outputs": [
        {
          "internalType": "uint256",
          "name": "",
          "type": "uint256"
        }
      ],
      "stateMutability": "view",
      "type": "function"
    },
    {
      "inputs": [
        {
          "internalType": "address",
          "name": "from",
          "type": "address"
        },
        {
          "internalType": "address",
          "name": "to",
          "type": "address"
        },
        {
          "internalType": "uint256",
          "name": "tokenId",
          "type": "uint256"
        }
      ],
      "name": "transferFrom",
      "outputs": [],
      "stateMutability": "nonpayable",
      "type": "function"
    },
    {
      "inputs": [
        {
          "internalType": "address",
          "name": "newOwner",
          "type": "address"
        }
      ],
      "name": "transferOwnership",
      "outputs": [],
      "stateMutability": "nonpayable",
      "type": "function"
    },
    {
      "inputs": [],
      "name": "vault",
      "outputs": [
        {
          "internalType": "address",
          "name": "",
          "type": "address"
        }
      ],
      "stateMutability": "view",
      "type": "function"
    },
    {
      "inputs": [
        {
          "internalType": "uint256",
          "name": "num",
          "type": "uint256"
        }
      ],
      "name": "mintTokens",
      "outputs": [],
      "stateMutability": "payable",
      "type": "function"
    },
    {
      "inputs": [
        {
          "internalType": "address",
          "name": "_owner",
          "type": "address"
        }
      ],
      "name": "walletOfOwner",
      "outputs": [
        {
          "internalType": "uint256[]",
          "name": "",
          "type": "uint256[]"
        }
      ],
      "stateMutability": "view",
      "type": "function"
    },
    {
      "inputs": [
        {
          "internalType": "uint256",
          "name": "_reservedArt",
          "type": "uint256"
        }
      ],
      "name": "reserve",
      "outputs": [],
      "stateMutability": "nonpayable",
      "type": "function"
    },
    {
      "inputs": [
        {
          "internalType": "uint256",
          "name": "_newPrice",
          "type": "uint256"
        }
      ],
      "name": "setPrice",
      "outputs": [],
      "stateMutability": "nonpayable",
      "type": "function"
    },
    {
      "inputs": [
        {
          "internalType": "string",
          "name": "baseURI",
          "type": "string"
        }
      ],
      "name": "setBaseURI",
      "outputs": [],
      "stateMutability": "nonpayable",
      "type": "function"
    },
    {
      "inputs": [],
      "name": "getPrice",
      "outputs": [
        {
          "internalType": "uint256",
          "name": "",
          "type": "uint256"
        }
      ],
      "stateMutability": "view",
      "type": "function"
    },
    {
      "inputs": [
        {
          "internalType": "bool",
          "name": "val",
          "type": "bool"
        }
      ],
      "name": "pause",
      "outputs": [],
      "stateMutability": "nonpayable",
      "type": "function"
    },
    {
      "inputs": [
        {
          "internalType": "address",
          "name": "_newVaultAddress",
          "type": "address"
        }
      ],
      "name": "setVault",
      "outputs": [],
      "stateMutability": "nonpayable",
      "type": "function"
    },
    {
      "inputs": [
        {
          "internalType": "uint256",
          "name": "_amount",
          "type": "uint256"
        }
      ],
      "name": "withdraw",
      "outputs": [],
      "stateMutability": "nonpayable",
      "type": "function"
    },
    {
      "inputs": [],
      "name": "withdrawAll",
      "outputs": [],
      "stateMutability": "payable",
      "type": "function"
    }
  ],
  "bytecode": "0x608060405266b1a2bc2ec50000600c556001600d60006101000a81548160ff0219169083151502179055503480156200003757600080fd5b506040518060400160405280601481526020017f4e3058534341504520434f4e43455054204152540000000000000000000000008152506040518060400160405280600481526020017f4e534341000000000000000000000000000000000000000000000000000000008152508160009080519060200190620000bc929190620001cc565b508060019080519060200190620000d5929190620001cc565b505050620000f8620000ec620000fe60201b60201c565b6200010660201b60201c565b620002e1565b600033905090565b6000600a60009054906101000a900473ffffffffffffffffffffffffffffffffffffffff16905081600a60006101000a81548173ffffffffffffffffffffffffffffffffffffffff021916908373ffffffffffffffffffffffffffffffffffffffff1602179055508173ffffffffffffffffffffffffffffffffffffffff168173ffffffffffffffffffffffffffffffffffffffff167f8be0079c531659141344cd1fd0a4f28419497f9722a3daafe3b4186f6b6457e060405160405180910390a35050565b828054620001da906200027c565b90600052602060002090601f016020900481019282620001fe57600085556200024a565b82601f106200021957805160ff19168380011785556200024a565b828001600101855582156200024a579182015b82811115620002495782518255916020019190600101906200022c565b5b5090506200025991906200025d565b5090565b5b80821115620002785760008160009055506001016200025e565b5090565b600060028204905060018216806200029557607f821691505b60208210811415620002ac57620002ab620002b2565b5b50919050565b7f4e487b7100000000000000000000000000000000000000000000000000000000600052602260045260246000fd5b61444880620002f16000396000f3fe6080604052600436106101d85760003560e01c80636817031b1161010257806397304ced11610095578063c87b56dd11610064578063c87b56dd1461068a578063e985e9c5146106c7578063f2fde38b14610704578063fbfa77cf1461072d576101d8565b806397304ced146105f157806398d5fdca1461060d578063a22cb46514610638578063b88d4fde14610661576101d8565b8063853828b6116100d1578063853828b6146105685780638da5cb5b1461057257806391b7f5ed1461059d57806395d89b41146105c6576101d8565b80636817031b146104c257806370a08231146104eb578063715018a614610528578063819b25ba1461053f576101d8565b806323b872dd1161017a578063438b630011610149578063438b6300146103e25780634f6ccce71461041f57806355f804b31461045c5780636352211e14610485576101d8565b806323b872dd1461032a5780632e1a7d4d146103535780632f745c591461037c57806342842e0e146103b9576101d8565b8063081812fc116101b6578063081812fc1461026e578063095ea7b3146102ab57806316c61ccc146102d457806318160ddd146102ff576101d8565b806301ffc9a7146101dd57806302329a291461021a57806306fdde0314610243575b600080fd5b3480156101e957600080fd5b5061020460048036038101906101ff91906130ef565b610758565b6040516102119190613c0d565b60405180910390f35b34801561022657600080fd5b50610241600480360381019061023c91906130c6565b6107d2565b005b34801561024f57600080fd5b5061025861086b565b6040516102659190613c28565b60405180910390f35b34801561027a57600080fd5b5061029560048036038101906102909190613182565b6108fd565b6040516102a29190613b84565b60405180910390f35b3480156102b757600080fd5b506102d260048036038101906102cd919061308a565b610982565b005b3480156102e057600080fd5b506102e9610a9a565b6040516102f69190613c0d565b60405180910390f35b34801561030b57600080fd5b50610314610aad565b6040516103219190613f4a565b60405180910390f35b34801561033657600080fd5b50610351600480360381019061034c9190612f84565b610aba565b005b34801561035f57600080fd5b5061037a60048036038101906103759190613182565b610b1a565b005b34801561038857600080fd5b506103a3600480360381019061039e919061308a565b610c8b565b6040516103b09190613f4a565b60405180910390f35b3480156103c557600080fd5b506103e060048036038101906103db9190612f84565b610d30565b005b3480156103ee57600080fd5b5061040960048036038101906104049190612f1f565b610d50565b6040516104169190613beb565b60405180910390f35b34801561042b57600080fd5b5061044660048036038101906104419190613182565b610e4a565b6040516104539190613f4a565b60405180910390f35b34801561046857600080fd5b50610483600480360381019061047e9190613141565b610ee1565b005b34801561049157600080fd5b506104ac60048036038101906104a79190613182565b610f77565b6040516104b99190613b84565b60405180910390f35b3480156104ce57600080fd5b506104e960048036038101906104e49190612f1f565b611029565b005b3480156104f757600080fd5b50610512600480360381019061050d9190612f1f565b6110e9565b60405161051f9190613f4a565b60405180910390f35b34801561053457600080fd5b5061053d6111a1565b005b34801561054b57600080fd5b5061056660048036038101906105619190613182565b611229565b005b61057061133f565b005b34801561057e57600080fd5b506105876114af565b6040516105949190613b84565b60405180910390f35b3480156105a957600080fd5b506105c460048036038101906105bf9190613182565b6114d9565b005b3480156105d257600080fd5b506105db61155f565b6040516105e89190613c28565b60405180910390f35b61060b60048036038101906106069190613182565b6115f1565b005b34801561061957600080fd5b50610622611767565b60405161062f9190613f4a565b60405180910390f35b34801561064457600080fd5b5061065f600480360381019061065a919061304e565b611771565b005b34801561066d57600080fd5b5061068860048036038101906106839190612fd3565b6118f2565b005b34801561069657600080fd5b506106b160048036038101906106ac9190613182565b611954565b6040516106be9190613c28565b60405180910390f35b3480156106d357600080fd5b506106ee60048036038101906106e99190612f48565b6119fb565b6040516106fb9190613c0d565b60405180910390f35b34801561071057600080fd5b5061072b60048036038101906107269190612f1f565b611a8f565b005b34801561073957600080fd5b50610742611b87565b60405161074f9190613b84565b60405180910390f35b60007f780e9d63000000000000000000000000000000000000000000000000000000007bffffffffffffffffffffffffffffffffffffffffffffffffffffffff1916827bffffffffffffffffffffffffffffffffffffffffffffffffffffffff191614806107cb57506107ca82611bad565b5b9050919050565b6107da611c8f565b73ffffffffffffffffffffffffffffffffffffffff166107f86114af565b73ffffffffffffffffffffffffffffffffffffffff161461084e576040517f08c379a000000000000000000000000000000000000000000000000000000000815260040161084590613e6a565b60405180910390fd5b80600d60006101000a81548160ff02191690831515021790555050565b60606000805461087a9061423d565b80601f01602080910402602001604051908101604052809291908181526020018280546108a69061423d565b80156108f35780601f106108c8576101008083540402835291602001916108f3565b820191906000526020600020905b8154815290600101906020018083116108d657829003601f168201915b5050505050905090565b600061090882611c97565b610947576040517f08c379a000000000000000000000000000000000000000000000000000000000815260040161093e90613e2a565b60405180910390fd5b6004600083815260200190815260200160002060009054906101000a900473ffffffffffffffffffffffffffffffffffffffff169050919050565b600061098d82610f77565b90508073ffffffffffffffffffffffffffffffffffffffff168373ffffffffffffffffffffffffffffffffffffffff1614156109fe576040517f08c379a00000000000000000000000000000000000000000000000000000000081526004016109f590613eea565b60405180910390fd5b8073ffffffffffffffffffffffffffffffffffffffff16610a1d611c8f565b73ffffffffffffffffffffffffffffffffffffffff161480610a4c5750610a4b81610a46611c8f565b6119fb565b5b610a8b576040517f08c379a0000000000000000000000000000000000000000000000000000000008152600401610a8290613d8a565b60405180910390fd5b610a958383611d03565b505050565b600d60009054906101000a900460ff1681565b6000600880549050905090565b610acb610ac5611c8f565b82611dbc565b610b0a576040517f08c379a0000000000000000000000000000000000000000000000000000000008152600401610b0190613f0a565b60405180910390fd5b610b15838383611e9a565b505050565b610b22611c8f565b73ffffffffffffffffffffffffffffffffffffffff16610b406114af565b73ffffffffffffffffffffffffffffffffffffffff1614610b96576040517f08c379a0000000000000000000000000000000000000000000000000000000008152600401610b8d90613e6a565b60405180910390fd5b600073ffffffffffffffffffffffffffffffffffffffff16600d60019054906101000a900473ffffffffffffffffffffffffffffffffffffffff1673ffffffffffffffffffffffffffffffffffffffff161415610c28576040517f08c379a0000000000000000000000000000000000000000000000000000000008152600401610c1f90613e0a565b60405180910390fd5b600d60019054906101000a900473ffffffffffffffffffffffffffffffffffffffff1673ffffffffffffffffffffffffffffffffffffffff166108fc829081150290604051600060405180830381858888f19350505050610c8857600080fd5b50565b6000610c96836110e9565b8210610cd7576040517f08c379a0000000000000000000000000000000000000000000000000000000008152600401610cce90613c8a565b60405180910390fd5b600660008473ffffffffffffffffffffffffffffffffffffffff1673ffffffffffffffffffffffffffffffffffffffff168152602001908152602001600020600083815260200190815260200160002054905092915050565b610d4b838383604051806020016040528060008152506118f2565b505050565b60606000610d5d836110e9565b905060008167ffffffffffffffff811115610da1577f4e487b7100000000000000000000000000000000000000000000000000000000600052604160045260246000fd5b604051908082528060200260200182016040528015610dcf5781602001602082028036833780820191505090505b50905060005b82811015610e3f57610de78582610c8b565b828281518110610e20577f4e487b7100000000000000000000000000000000000000000000000000000000600052603260045260246000fd5b6020026020010181815250508080610e379061426f565b915050610dd5565b508092505050919050565b6000610e54610aad565b8210610e95576040517f08c379a0000000000000000000000000000000000000000000000000000000008152600401610e8c90613f2a565b60405180910390fd5b60088281548110610ecf577f4e487b7100000000000000000000000000000000000000000000000000000000600052603260045260246000fd5b90600052602060002001549050919050565b610ee9611c8f565b73ffffffffffffffffffffffffffffffffffffffff16610f076114af565b73ffffffffffffffffffffffffffffffffffffffff1614610f5d576040517f08c379a0000000000000000000000000000000000000000000000000000000008152600401610f5490613e6a565b60405180910390fd5b80600b9080519060200190610f73929190612d43565b5050565b6000806002600084815260200190815260200160002060009054906101000a900473ffffffffffffffffffffffffffffffffffffffff169050600073ffffffffffffffffffffffffffffffffffffffff168173ffffffffffffffffffffffffffffffffffffffff161415611020576040517f08c379a000000000000000000000000000000000000000000000000000000000815260040161101790613dca565b60405180910390fd5b80915050919050565b611031611c8f565b73ffffffffffffffffffffffffffffffffffffffff1661104f6114af565b73ffffffffffffffffffffffffffffffffffffffff16146110a5576040517f08c379a000000000000000000000000000000000000000000000000000000000815260040161109c90613e6a565b60405180910390fd5b80600d60016101000a81548173ffffffffffffffffffffffffffffffffffffffff021916908373ffffffffffffffffffffffffffffffffffffffff16021790555050565b60008073ffffffffffffffffffffffffffffffffffffffff168273ffffffffffffffffffffffffffffffffffffffff16141561115a576040517f08c379a000000000000000000000000000000000000000000000000000000000815260040161115190613daa565b60405180910390fd5b600360008373ffffffffffffffffffffffffffffffffffffffff1673ffffffffffffffffffffffffffffffffffffffff168152602001908152602001600020549050919050565b6111a9611c8f565b73ffffffffffffffffffffffffffffffffffffffff166111c76114af565b73ffffffffffffffffffffffffffffffffffffffff161461121d576040517f08c379a000000000000000000000000000000000000000000000000000000000815260040161121490613e6a565b60405180910390fd5b61122760006120f6565b565b611231611c8f565b73ffffffffffffffffffffffffffffffffffffffff1661124f6114af565b73ffffffffffffffffffffffffffffffffffffffff16146112a5576040517f08c379a000000000000000000000000000000000000000000000000000000000815260040161129c90613e6a565b60405180910390fd5b60006112af610aad565b9050600d60009054906101000a900460ff16611300576040517f08c379a00000000000000000000000000000000000000000000000000000000081526004016112f790613d0a565b60405180910390fd5b60005b8281101561133a576113276113166114af565b82846113229190614072565b6121bc565b80806113329061426f565b915050611303565b505050565b611347611c8f565b73ffffffffffffffffffffffffffffffffffffffff166113656114af565b73ffffffffffffffffffffffffffffffffffffffff16146113bb576040517f08c379a00000000000000000000000000000000000000000000000000000000081526004016113b290613e6a565b60405180910390fd5b600073ffffffffffffffffffffffffffffffffffffffff16600d60019054906101000a900473ffffffffffffffffffffffffffffffffffffffff1673ffffffffffffffffffffffffffffffffffffffff16141561144d576040517f08c379a000000000000000000000000000000000000000000000000000000000815260040161144490613e0a565b60405180910390fd5b600d60019054906101000a900473ffffffffffffffffffffffffffffffffffffffff1673ffffffffffffffffffffffffffffffffffffffff166108fc479081150290604051600060405180830381858888f193505050506114ad57600080fd5b565b6000600a60009054906101000a900473ffffffffffffffffffffffffffffffffffffffff16905090565b6114e1611c8f565b73ffffffffffffffffffffffffffffffffffffffff166114ff6114af565b73ffffffffffffffffffffffffffffffffffffffff1614611555576040517f08c379a000000000000000000000000000000000000000000000000000000000815260040161154c90613e6a565b60405180910390fd5b80600c8190555050565b60606001805461156e9061423d565b80601f016020809104026020016040519081016040528092919081815260200182805461159a9061423d565b80156115e75780601f106115bc576101008083540402835291602001916115e7565b820191906000526020600020905b8154815290600101906020018083116115ca57829003601f168201915b5050505050905090565b60006115fb610aad565b9050600d60009054906101000a900460ff161561164d576040517f08c379a000000000000000000000000000000000000000000000000000000000815260040161164490613e4a565b60405180910390fd5b60068210611690576040517f08c379a000000000000000000000000000000000000000000000000000000000815260040161168790613c4a565b60405180910390fd5b610400828261169f9190614072565b106116df576040517f08c379a00000000000000000000000000000000000000000000000000000000081526004016116d690613c6a565b60405180910390fd5b81600c546116ed91906140f9565b34101561172f576040517f08c379a000000000000000000000000000000000000000000000000000000000815260040161172690613eca565b60405180910390fd5b60005b828110156117625761174f33828461174a9190614072565b6121bc565b808061175a9061426f565b915050611732565b505050565b6000600c54905090565b611779611c8f565b73ffffffffffffffffffffffffffffffffffffffff168273ffffffffffffffffffffffffffffffffffffffff1614156117e7576040517f08c379a00000000000000000000000000000000000000000000000000000000081526004016117de90613d4a565b60405180910390fd5b80600560006117f4611c8f565b73ffffffffffffffffffffffffffffffffffffffff1673ffffffffffffffffffffffffffffffffffffffff16815260200190815260200160002060008473ffffffffffffffffffffffffffffffffffffffff1673ffffffffffffffffffffffffffffffffffffffff16815260200190815260200160002060006101000a81548160ff0219169083151502179055508173ffffffffffffffffffffffffffffffffffffffff166118a1611c8f565b73ffffffffffffffffffffffffffffffffffffffff167f17307eab39ab6107e8899845ad3d59bd9653f200f220920489ca2b5937696c31836040516118e69190613c0d565b60405180910390a35050565b6119036118fd611c8f565b83611dbc565b611942576040517f08c379a000000000000000000000000000000000000000000000000000000000815260040161193990613f0a565b60405180910390fd5b61194e848484846121da565b50505050565b606061195f82611c97565b61199e576040517f08c379a000000000000000000000000000000000000000000000000000000000815260040161199590613eaa565b60405180910390fd5b60006119a8612236565b905060008151116119c857604051806020016040528060008152506119f3565b806119d2846122c8565b6040516020016119e3929190613b60565b6040516020818303038152906040525b915050919050565b6000600560008473ffffffffffffffffffffffffffffffffffffffff1673ffffffffffffffffffffffffffffffffffffffff16815260200190815260200160002060008373ffffffffffffffffffffffffffffffffffffffff1673ffffffffffffffffffffffffffffffffffffffff16815260200190815260200160002060009054906101000a900460ff16905092915050565b611a97611c8f565b73ffffffffffffffffffffffffffffffffffffffff16611ab56114af565b73ffffffffffffffffffffffffffffffffffffffff1614611b0b576040517f08c379a0000000000000000000000000000000000000000000000000000000008152600401611b0290613e6a565b60405180910390fd5b600073ffffffffffffffffffffffffffffffffffffffff168173ffffffffffffffffffffffffffffffffffffffff161415611b7b576040517f08c379a0000000000000000000000000000000000000000000000000000000008152600401611b7290613cca565b60405180910390fd5b611b84816120f6565b50565b600d60019054906101000a900473ffffffffffffffffffffffffffffffffffffffff1681565b60007f80ac58cd000000000000000000000000000000000000000000000000000000007bffffffffffffffffffffffffffffffffffffffffffffffffffffffff1916827bffffffffffffffffffffffffffffffffffffffffffffffffffffffff19161480611c7857507f5b5e139f000000000000000000000000000000000000000000000000000000007bffffffffffffffffffffffffffffffffffffffffffffffffffffffff1916827bffffffffffffffffffffffffffffffffffffffffffffffffffffffff1916145b80611c885750611c8782612475565b5b9050919050565b600033905090565b60008073ffffffffffffffffffffffffffffffffffffffff166002600084815260200190815260200160002060009054906101000a900473ffffffffffffffffffffffffffffffffffffffff1673ffffffffffffffffffffffffffffffffffffffff1614159050919050565b816004600083815260200190815260200160002060006101000a81548173ffffffffffffffffffffffffffffffffffffffff021916908373ffffffffffffffffffffffffffffffffffffffff160217905550808273ffffffffffffffffffffffffffffffffffffffff16611d7683610f77565b73ffffffffffffffffffffffffffffffffffffffff167f8c5be1e5ebec7d5bd14f71427d1e84f3dd0314c0f7b2291e5b200ac8c7c3b92560405160405180910390a45050565b6000611dc782611c97565b611e06576040517f08c379a0000000000000000000000000000000000000000000000000000000008152600401611dfd90613d6a565b60405180910390fd5b6000611e1183610f77565b90508073ffffffffffffffffffffffffffffffffffffffff168473ffffffffffffffffffffffffffffffffffffffff161480611e8057508373ffffffffffffffffffffffffffffffffffffffff16611e68846108fd565b73ffffffffffffffffffffffffffffffffffffffff16145b80611e915750611e9081856119fb565b5b91505092915050565b8273ffffffffffffffffffffffffffffffffffffffff16611eba82610f77565b73ffffffffffffffffffffffffffffffffffffffff1614611f10576040517f08c379a0000000000000000000000000000000000000000000000000000000008152600401611f0790613e8a565b60405180910390fd5b600073ffffffffffffffffffffffffffffffffffffffff168273ffffffffffffffffffffffffffffffffffffffff161415611f80576040517f08c379a0000000000000000000000000000000000000000000000000000000008152600401611f7790613d2a565b60405180910390fd5b611f8b8383836124df565b611f96600082611d03565b6001600360008573ffffffffffffffffffffffffffffffffffffffff1673ffffffffffffffffffffffffffffffffffffffff1681526020019081526020016000206000828254611fe69190614153565b925050819055506001600360008473ffffffffffffffffffffffffffffffffffffffff1673ffffffffffffffffffffffffffffffffffffffff168152602001908152602001600020600082825461203d9190614072565b92505081905550816002600083815260200190815260200160002060006101000a81548173ffffffffffffffffffffffffffffffffffffffff021916908373ffffffffffffffffffffffffffffffffffffffff160217905550808273ffffffffffffffffffffffffffffffffffffffff168473ffffffffffffffffffffffffffffffffffffffff167fddf252ad1be2c89b69c2b068fc378daa952ba7f163c4a11628f55a4df523b3ef60405160405180910390a4505050565b6000600a60009054906101000a900473ffffffffffffffffffffffffffffffffffffffff16905081600a60006101000a81548173ffffffffffffffffffffffffffffffffffffffff021916908373ffffffffffffffffffffffffffffffffffffffff1602179055508173ffffffffffffffffffffffffffffffffffffffff168173ffffffffffffffffffffffffffffffffffffffff167f8be0079c531659141344cd1fd0a4f28419497f9722a3daafe3b4186f6b6457e060405160405180910390a35050565b6121d68282604051806020016040528060008152506125f3565b5050565b6121e5848484611e9a565b6121f18484848461264e565b612230576040517f08c379a000000000000000000000000000000000000000000000000000000000815260040161222790613caa565b60405180910390fd5b50505050565b6060600b80546122459061423d565b80601f01602080910402602001604051908101604052809291908181526020018280546122719061423d565b80156122be5780601f10612293576101008083540402835291602001916122be565b820191906000526020600020905b8154815290600101906020018083116122a157829003601f168201915b5050505050905090565b60606000821415612310576040518060400160405280600181526020017f30000000000000000000000000000000000000000000000000000000000000008152509050612470565b600082905060005b6000821461234257808061232b9061426f565b915050600a8261233b91906140c8565b9150612318565b60008167ffffffffffffffff811115612384577f4e487b7100000000000000000000000000000000000000000000000000000000600052604160045260246000fd5b6040519080825280601f01601f1916602001820160405280156123b65781602001600182028036833780820191505090505b5090505b60008514612469576001826123cf9190614153565b9150600a856123de91906142b8565b60306123ea9190614072565b60f81b818381518110612426577f4e487b7100000000000000000000000000000000000000000000000000000000600052603260045260246000fd5b60200101907effffffffffffffffffffffffffffffffffffffffffffffffffffffffffffff1916908160001a905350600a8561246291906140c8565b94506123ba565b8093505050505b919050565b60007f01ffc9a7000000000000000000000000000000000000000000000000000000007bffffffffffffffffffffffffffffffffffffffffffffffffffffffff1916827bffffffffffffffffffffffffffffffffffffffffffffffffffffffff1916149050919050565b6124ea8383836127e5565b600073ffffffffffffffffffffffffffffffffffffffff168373ffffffffffffffffffffffffffffffffffffffff16141561252d57612528816127ea565b61256c565b8173ffffffffffffffffffffffffffffffffffffffff168373ffffffffffffffffffffffffffffffffffffffff161461256b5761256a8382612833565b5b5b600073ffffffffffffffffffffffffffffffffffffffff168273ffffffffffffffffffffffffffffffffffffffff1614156125af576125aa816129a0565b6125ee565b8273ffffffffffffffffffffffffffffffffffffffff168273ffffffffffffffffffffffffffffffffffffffff16146125ed576125ec8282612ae3565b5b5b505050565b6125fd8383612b62565b61260a600084848461264e565b612649576040517f08c379a000000000000000000000000000000000000000000000000000000000815260040161264090613caa565b60405180910390fd5b505050565b600061266f8473ffffffffffffffffffffffffffffffffffffffff16612d30565b156127d8578373ffffffffffffffffffffffffffffffffffffffff1663150b7a02612698611c8f565b8786866040518563ffffffff1660e01b81526004016126ba9493929190613b9f565b602060405180830381600087803b1580156126d457600080fd5b505af192505050801561270557506040513d601f19601f820116820180604052508101906127029190613118565b60015b612788573d8060008114612735576040519150601f19603f3d011682016040523d82523d6000602084013e61273a565b606091505b50600081511415612780576040517f08c379a000000000000000000000000000000000000000000000000000000000815260040161277790613caa565b60405180910390fd5b805181602001fd5b63150b7a0260e01b7bffffffffffffffffffffffffffffffffffffffffffffffffffffffff1916817bffffffffffffffffffffffffffffffffffffffffffffffffffffffff1916149150506127dd565b600190505b949350505050565b505050565b6008805490506009600083815260200190815260200160002081905550600881908060018154018082558091505060019003906000526020600020016000909190919091505550565b60006001612840846110e9565b61284a9190614153565b905060006007600084815260200190815260200160002054905081811461292f576000600660008673ffffffffffffffffffffffffffffffffffffffff1673ffffffffffffffffffffffffffffffffffffffff168152602001908152602001600020600084815260200190815260200160002054905080600660008773ffffffffffffffffffffffffffffffffffffffff1673ffffffffffffffffffffffffffffffffffffffff168152602001908152602001600020600084815260200190815260200160002081905550816007600083815260200190815260200160002081905550505b6007600084815260200190815260200160002060009055600660008573ffffffffffffffffffffffffffffffffffffffff1673ffffffffffffffffffffffffffffffffffffffff16815260200190815260200160002060008381526020019081526020016000206000905550505050565b600060016008805490506129b49190614153565b9050600060096000848152602001908152602001600020549050600060088381548110612a0a577f4e487b7100000000000000000000000000000000000000000000000000000000600052603260045260246000fd5b906000526020600020015490508060088381548110612a52577f4e487b7100000000000000000000000000000000000000000000000000000000600052603260045260246000fd5b906000526020600020018190555081600960008381526020019081526020016000208190555060096000858152602001908152602001600020600090556008805480612ac7577f4e487b7100000000000000000000000000000000000000000000000000000000600052603160045260246000fd5b6001900381819060005260206000200160009055905550505050565b6000612aee836110e9565b905081600660008573ffffffffffffffffffffffffffffffffffffffff1673ffffffffffffffffffffffffffffffffffffffff168152602001908152602001600020600083815260200190815260200160002081905550806007600084815260200190815260200160002081905550505050565b600073ffffffffffffffffffffffffffffffffffffffff168273ffffffffffffffffffffffffffffffffffffffff161415612bd2576040517f08c379a0000000000000000000000000000000000000000000000000000000008152600401612bc990613dea565b60405180910390fd5b612bdb81611c97565b15612c1b576040517f08c379a0000000000000000000000000000000000000000000000000000000008152600401612c1290613cea565b60405180910390fd5b612c27600083836124df565b6001600360008473ffffffffffffffffffffffffffffffffffffffff1673ffffffffffffffffffffffffffffffffffffffff1681526020019081526020016000206000828254612c779190614072565b92505081905550816002600083815260200190815260200160002060006101000a81548173ffffffffffffffffffffffffffffffffffffffff021916908373ffffffffffffffffffffffffffffffffffffffff160217905550808273ffffffffffffffffffffffffffffffffffffffff16600073ffffffffffffffffffffffffffffffffffffffff167fddf252ad1be2c89b69c2b068fc378daa952ba7f163c4a11628f55a4df523b3ef60405160405180910390a45050565b600080823b905060008111915050919050565b828054612d4f9061423d565b90600052602060002090601f016020900481019282612d715760008555612db8565b82601f10612d8a57805160ff1916838001178555612db8565b82800160010185558215612db8579182015b82811115612db7578251825591602001919060010190612d9c565b5b509050612dc59190612dc9565b5090565b5b80821115612de2576000816000905550600101612dca565b5090565b6000612df9612df484613f96565b613f65565b905082815260208101848484011115612e1157600080fd5b612e1c8482856141fb565b509392505050565b6000612e37612e3284613fc6565b613f65565b905082815260208101848484011115612e4f57600080fd5b612e5a8482856141fb565b509392505050565b600081359050612e71816143b6565b92915050565b600081359050612e86816143cd565b92915050565b600081359050612e9b816143e4565b92915050565b600081519050612eb0816143e4565b92915050565b600082601f830112612ec757600080fd5b8135612ed7848260208601612de6565b91505092915050565b600082601f830112612ef157600080fd5b8135612f01848260208601612e24565b91505092915050565b600081359050612f19816143fb565b92915050565b600060208284031215612f3157600080fd5b6000612f3f84828501612e62565b91505092915050565b60008060408385031215612f5b57600080fd5b6000612f6985828601612e62565b9250506020612f7a85828601612e62565b9150509250929050565b600080600060608486031215612f9957600080fd5b6000612fa786828701612e62565b9350506020612fb886828701612e62565b9250506040612fc986828701612f0a565b9150509250925092565b60008060008060808587031215612fe957600080fd5b6000612ff787828801612e62565b945050602061300887828801612e62565b935050604061301987828801612f0a565b925050606085013567ffffffffffffffff81111561303657600080fd5b61304287828801612eb6565b91505092959194509250565b6000806040838503121561306157600080fd5b600061306f85828601612e62565b925050602061308085828601612e77565b9150509250929050565b6000806040838503121561309d57600080fd5b60006130ab85828601612e62565b92505060206130bc85828601612f0a565b9150509250929050565b6000602082840312156130d857600080fd5b60006130e684828501612e77565b91505092915050565b60006020828403121561310157600080fd5b600061310f84828501612e8c565b91505092915050565b60006020828403121561312a57600080fd5b600061313884828501612ea1565b91505092915050565b60006020828403121561315357600080fd5b600082013567ffffffffffffffff81111561316d57600080fd5b61317984828501612ee0565b91505092915050565b60006020828403121561319457600080fd5b60006131a284828501612f0a565b91505092915050565b60006131b78383613b42565b60208301905092915050565b6131cc81614187565b82525050565b60006131dd82614006565b6131e78185614034565b93506131f283613ff6565b8060005b8381101561322357815161320a88826131ab565b975061321583614027565b9250506001810190506131f6565b5085935050505092915050565b61323981614199565b82525050565b600061324a82614011565b6132548185614045565b935061326481856020860161420a565b61326d816143a5565b840191505092915050565b60006132838261401c565b61328d8185614056565b935061329d81856020860161420a565b6132a6816143a5565b840191505092915050565b60006132bc8261401c565b6132c68185614067565b93506132d681856020860161420a565b80840191505092915050565b60006132ef601983614056565b91507f596f752063616e206f6e6c792067726162203520746f6b656e000000000000006000830152602082019050919050565b600061332f601c83614056565b91507f45786365656473206d6178696d756d20746f6b656e20737570706c79000000006000830152602082019050919050565b600061336f602b83614056565b91507f455243373231456e756d657261626c653a206f776e657220696e646578206f7560008301527f74206f6620626f756e64730000000000000000000000000000000000000000006020830152604082019050919050565b60006133d5603283614056565b91507f4552433732313a207472616e7366657220746f206e6f6e20455243373231526560008301527f63656976657220696d706c656d656e74657200000000000000000000000000006020830152604082019050919050565b600061343b602683614056565b91507f4f776e61626c653a206e6577206f776e657220697320746865207a65726f206160008301527f64647265737300000000000000000000000000000000000000000000000000006020830152604082019050919050565b60006134a1601c83614056565b91507f4552433732313a20746f6b656e20616c7265616479206d696e746564000000006000830152602082019050919050565b60006134e1602b83614056565b91507f43616e6e6f74207265736572766520617274207768696c652073616c6520697360008301527f20696e2070726f636573730000000000000000000000000000000000000000006020830152604082019050919050565b6000613547602483614056565b91507f4552433732313a207472616e7366657220746f20746865207a65726f2061646460008301527f72657373000000000000000000000000000000000000000000000000000000006020830152604082019050919050565b60006135ad601983614056565b91507f4552433732313a20617070726f766520746f2063616c6c6572000000000000006000830152602082019050919050565b60006135ed602c83614056565b91507f4552433732313a206f70657261746f7220717565727920666f72206e6f6e657860008301527f697374656e7420746f6b656e00000000000000000000000000000000000000006020830152604082019050919050565b6000613653603883614056565b91507f4552433732313a20617070726f76652063616c6c6572206973206e6f74206f7760008301527f6e6572206e6f7220617070726f76656420666f7220616c6c00000000000000006020830152604082019050919050565b60006136b9602a83614056565b91507f4552433732313a2062616c616e636520717565727920666f7220746865207a6560008301527f726f2061646472657373000000000000000000000000000000000000000000006020830152604082019050919050565b600061371f602983614056565b91507f4552433732313a206f776e657220717565727920666f72206e6f6e657869737460008301527f656e7420746f6b656e00000000000000000000000000000000000000000000006020830152604082019050919050565b6000613785602083614056565b91507f4552433732313a206d696e7420746f20746865207a65726f20616464726573736000830152602082019050919050565b60006137c5600883614056565b91507f6e6f207661756c740000000000000000000000000000000000000000000000006000830152602082019050919050565b6000613805602c83614056565b91507f4552433732313a20617070726f76656420717565727920666f72206e6f6e657860008301527f697374656e7420746f6b656e00000000000000000000000000000000000000006020830152604082019050919050565b600061386b601283614056565b91507f4172742053616c652049732050617573656400000000000000000000000000006000830152602082019050919050565b60006138ab602083614056565b91507f4f776e61626c653a2063616c6c6572206973206e6f7420746865206f776e65726000830152602082019050919050565b60006138eb602983614056565b91507f4552433732313a207472616e73666572206f6620746f6b656e2074686174206960008301527f73206e6f74206f776e00000000000000000000000000000000000000000000006020830152604082019050919050565b6000613951602f83614056565b91507f4552433732314d657461646174613a2055524920717565727920666f72206e6f60008301527f6e6578697374656e7420746f6b656e00000000000000000000000000000000006020830152604082019050919050565b60006139b7602583614056565b91507f45746865722073656e742069732062656c6f7720746865207072696365206f6660008301527f206d696e740000000000000000000000000000000000000000000000000000006020830152604082019050919050565b6000613a1d602183614056565b91507f4552433732313a20617070726f76616c20746f2063757272656e74206f776e6560008301527f72000000000000000000000000000000000000000000000000000000000000006020830152604082019050919050565b6000613a83603183614056565b91507f4552433732313a207472616e736665722063616c6c6572206973206e6f74206f60008301527f776e6572206e6f7220617070726f7665640000000000000000000000000000006020830152604082019050919050565b6000613ae9602c83614056565b91507f455243373231456e756d657261626c653a20676c6f62616c20696e646578206f60008301527f7574206f6620626f756e647300000000000000000000000000000000000000006020830152604082019050919050565b613b4b816141f1565b82525050565b613b5a816141f1565b82525050565b6000613b6c82856132b1565b9150613b7882846132b1565b91508190509392505050565b6000602082019050613b9960008301846131c3565b92915050565b6000608082019050613bb460008301876131c3565b613bc160208301866131c3565b613bce6040830185613b51565b8181036060830152613be0818461323f565b905095945050505050565b60006020820190508181036000830152613c0581846131d2565b905092915050565b6000602082019050613c226000830184613230565b92915050565b60006020820190508181036000830152613c428184613278565b905092915050565b60006020820190508181036000830152613c63816132e2565b9050919050565b60006020820190508181036000830152613c8381613322565b9050919050565b60006020820190508181036000830152613ca381613362565b9050919050565b60006020820190508181036000830152613cc3816133c8565b9050919050565b60006020820190508181036000830152613ce38161342e565b9050919050565b60006020820190508181036000830152613d0381613494565b9050919050565b60006020820190508181036000830152613d23816134d4565b9050919050565b60006020820190508181036000830152613d438161353a565b9050919050565b60006020820190508181036000830152613d63816135a0565b9050919050565b60006020820190508181036000830152613d83816135e0565b9050919050565b60006020820190508181036000830152613da381613646565b9050919050565b60006020820190508181036000830152613dc3816136ac565b9050919050565b60006020820190508181036000830152613de381613712565b9050919050565b60006020820190508181036000830152613e0381613778565b9050919050565b60006020820190508181036000830152613e23816137b8565b9050919050565b60006020820190508181036000830152613e43816137f8565b9050919050565b60006020820190508181036000830152613e638161385e565b9050919050565b60006020820190508181036000830152613e838161389e565b9050919050565b60006020820190508181036000830152613ea3816138de565b9050919050565b60006020820190508181036000830152613ec381613944565b9050919050565b60006020820190508181036000830152613ee3816139aa565b9050919050565b60006020820190508181036000830152613f0381613a10565b9050919050565b60006020820190508181036000830152613f2381613a76565b9050919050565b60006020820190508181036000830152613f4381613adc565b9050919050565b6000602082019050613f5f6000830184613b51565b92915050565b6000604051905081810181811067ffffffffffffffff82111715613f8c57613f8b614376565b5b8060405250919050565b600067ffffffffffffffff821115613fb157613fb0614376565b5b601f19601f8301169050602081019050919050565b600067ffffffffffffffff821115613fe157613fe0614376565b5b601f19601f8301169050602081019050919050565b6000819050602082019050919050565b600081519050919050565b600081519050919050565b600081519050919050565b6000602082019050919050565b600082825260208201905092915050565b600082825260208201905092915050565b600082825260208201905092915050565b600081905092915050565b600061407d826141f1565b9150614088836141f1565b9250827fffffffffffffffffffffffffffffffffffffffffffffffffffffffffffffffff038211156140bd576140bc6142e9565b5b828201905092915050565b60006140d3826141f1565b91506140de836141f1565b9250826140ee576140ed614318565b5b828204905092915050565b6000614104826141f1565b915061410f836141f1565b9250817fffffffffffffffffffffffffffffffffffffffffffffffffffffffffffffffff0483118215151615614148576141476142e9565b5b828202905092915050565b600061415e826141f1565b9150614169836141f1565b92508282101561417c5761417b6142e9565b5b828203905092915050565b6000614192826141d1565b9050919050565b60008115159050919050565b60007fffffffff0000000000000000000000000000000000000000000000000000000082169050919050565b600073ffffffffffffffffffffffffffffffffffffffff82169050919050565b6000819050919050565b82818337600083830152505050565b60005b8381101561422857808201518184015260208101905061420d565b83811115614237576000848401525b50505050565b6000600282049050600182168061425557607f821691505b6020821081141561426957614268614347565b5b50919050565b600061427a826141f1565b91507fffffffffffffffffffffffffffffffffffffffffffffffffffffffffffffffff8214156142ad576142ac6142e9565b5b600182019050919050565b60006142c3826141f1565b91506142ce836141f1565b9250826142de576142dd614318565b5b828206905092915050565b7f4e487b7100000000000000000000000000000000000000000000000000000000600052601160045260246000fd5b7f4e487b7100000000000000000000000000000000000000000000000000000000600052601260045260246000fd5b7f4e487b7100000000000000000000000000000000000000000000000000000000600052602260045260246000fd5b7f4e487b7100000000000000000000000000000000000000000000000000000000600052604160045260246000fd5b6000601f19601f8301169050919050565b6143bf81614187565b81146143ca57600080fd5b50565b6143d681614199565b81146143e157600080fd5b50565b6143ed816141a5565b81146143f857600080fd5b50565b614404816141f1565b811461440f57600080fd5b5056fea26469706673582212208c9a4f0fcf802e00fc388f05b0391947d0fc78dc8cc62ff83b58c4cc221786b164736f6c63430008000033",
  "immutableReferences": {},
  "source": "// 1024 Generative Designs From Our Concept Art\r\n// Goes through 5 generations before landing on the isometric artstyle we have chosen utilzing the talent of @futureboy3lll\r\n//      ___           ___            ___           ___           ___           ___         ___     \r\n//     /\\  \\         /|  |          /\\__\\         /\\__\\         /\\  \\         /\\  \\       /\\__\\    \r\n//     \\:\\  \\       |:|  |         /:/ _/_       /:/  /        /::\\  \\       /::\\  \\     /:/ _/_   \r\n//      \\:\\  \\      |:|  |        /:/ /\\  \\     /:/  /        /:/\\:\\  \\     /:/\\:\\__\\   /:/ /\\__\\  \r\n// _____\\:\\  \\   __|:|__|       /:/ /::\\  \\   /:/  /  ___   /:/ /::\\  \\   /:/ /:/  /  /:/ /:/ _/_ \r\n// /::::::::\\__\\ /::::\\__\\_____ /:/_/:/\\:\\__\\ /:/__/  /\\__\\ /:/_/:/\\:\\__\\ /:/_/:/  /  /:/_/:/ /\\__\\\r\n// \\:\\~~\\~~\\/__/ ~~~~\\::::/___/ \\:\\/:/ /:/  / \\:\\  \\ /:/  / \\:\\/:/  \\/__/ \\:\\/:/  /   \\:\\/:/ /:/  /\r\n//  \\:\\  \\           |:|~~|      \\::/ /:/  /   \\:\\  /:/  /   \\::/__/       \\::/__/     \\::/_/:/  / \r\n//   \\:\\  \\          |:|  |       \\/_/:/  /     \\:\\/:/  /     \\:\\  \\        \\:\\  \\      \\:\\/:/  /  \r\n//    \\:\\__\\         |:|__|         /:/  /       \\::/  /       \\:\\__\\        \\:\\__\\      \\::/  /   \r\n//     \\/__/         |/__/          \\/__/         \\/__/         \\/__/         \\/__/       \\/__/    \r\n//      ___           ___           ___           ___           ___           ___                  \r\n//     /\\__\\         /\\  \\         /\\  \\         /\\__\\         /\\__\\         /\\  \\                 \r\n//    /:/  /        /::\\  \\        \\:\\  \\       /:/  /        /:/ _/_       /::\\  \\       ___      \r\n//   /:/  /        /:/\\:\\  \\        \\:\\  \\     /:/  /        /:/ /\\__\\     /:/\\:\\__\\     /\\__\\     \r\n//  /:/  /  ___   /:/  \\:\\  \\   _____\\:\\  \\   /:/  /  ___   /:/ /:/ _/_   /:/ /:/  /    /:/  /     \r\n// /:/__/  /\\__\\ /:/__/ \\:\\__\\ /::::::::\\__\\ /:/__/  /\\__\\ /:/_/:/ /\\__\\ /:/_/:/  /    /:/__/      \r\n// \\:\\  \\ /:/  / \\:\\  \\ /:/  / \\:\\~~\\~~\\/__/ \\:\\  \\ /:/  / \\:\\/:/ /:/  / \\:\\/:/  /    /::\\  \\      \r\n//  \\:\\  /:/  /   \\:\\  /:/  /   \\:\\  \\        \\:\\  /:/  /   \\::/_/:/  /   \\::/__/    /:/\\:\\  \\     \r\n//   \\:\\/:/  /     \\:\\/:/  /     \\:\\  \\        \\:\\/:/  /     \\:\\/:/  /     \\:\\  \\    \\/__\\:\\  \\    \r\n//    \\::/  /       \\::/  /       \\:\\__\\        \\::/  /       \\::/  /       \\:\\__\\        \\:\\__\\   \r\n//     \\/__/         \\/__/         \\/__/         \\/__/         \\/__/         \\/__/         \\/__/   \r\n//      ___           ___                                                                          \r\n//    /\\  \\         /\\  \\                                                                         \r\n//    /::\\  \\       /::\\  \\         ___                                                            \r\n//   /:/\\:\\  \\     /:/\\:\\__\\       /\\__\\                                                           \r\n//  /:/ /::\\  \\   /:/ /:/  /      /:/  /                                                           \r\n// /:/_/:/\\:\\__\\ /:/_/:/__/___   /:/__/                                                            \r\n// \\:\\/:/  \\/__/ \\:\\/:::::/  /  /::\\  \\                                                            \r\n//  \\::/__/       \\::/~~/~~~~  /:/\\:\\  \\                                                           \r\n//   \\:\\  \\        \\:\\~~\\      \\/__\\:\\  \\                                                          \r\n//   \\:\\__\\        \\:\\__\\          \\:\\__\\                                                         \r\n//     \\/__/         \\/__/           \\/__/        \r\n// Studio - twitter.com/Augminted\r\n// Artist - twitter.com/futureboy3lll\r\n// Developer - twitter.com/ohdotss\r\n// Game Twitter - twitter.com/n0xscape\r\n// SPDX-License-Identifier: MIT\r\npragma solidity ^0.8.0;\r\n\r\nimport '@openzeppelin/contracts/token/ERC721/extensions/ERC721Enumerable.sol';\r\nimport '@openzeppelin/contracts/access/Ownable.sol';\r\n\r\ncontract n0xAlphaArt is ERC721Enumerable, Ownable {\r\n\r\n    using Strings for uint256;\r\n\r\n    string _baseTokenURI;\r\n    uint256 private _price = 0.05 ether;\r\n    bool public _paused = true;\r\n    address public vault;\r\n\r\n    constructor() ERC721(\"N0XSCAPE CONCEPT ART\", \"NSCA\")  {\r\n    }\r\n\r\n    function mintTokens(uint256 num) public payable {\r\n        uint256 supply = totalSupply();\r\n        require( !_paused, \"Art Sale Is Paused\" );\r\n        require( num < 6, \"You can only grab 5 token\" );\r\n        require( supply + num < 1024, \"Exceeds maximum token supply\" );\r\n        require( msg.value >= _price * num, \"Ether sent is below the price of mint\" );\r\n\r\n        for(uint256 i; i < num; i++){\r\n            _safeMint( msg.sender, supply + i );\r\n        }\r\n    }\r\n\r\n    function walletOfOwner(address _owner) public view returns(uint256[] memory) {\r\n        uint256 tokenCount = balanceOf(_owner);\r\n\r\n        uint256[] memory tokensId = new uint256[](tokenCount);\r\n        for(uint256 i; i < tokenCount; i++){\r\n            tokensId[i] = tokenOfOwnerByIndex(_owner, i);\r\n        }\r\n        return tokensId;\r\n    }\r\n\r\n    //Reserve 40 for friends and family.\r\n    function reserve(uint256 _reservedArt) public onlyOwner() {\r\n        uint256 supply = totalSupply();\r\n        require(_paused, 'Cannot reserve art while sale is in process');\r\n        uint256 index;\r\n        for (index = 0; index < _reservedArt; index++) {\r\n            _safeMint(owner(), supply + index);\r\n        }\r\n    }\r\n    \r\n    function setPrice(uint256 _newPrice) public onlyOwner() {\r\n        _price = _newPrice;\r\n    }\r\n\r\n    function _baseURI() internal view virtual override returns (string memory) {\r\n        return _baseTokenURI;\r\n    }\r\n\r\n    function setBaseURI(string memory baseURI) public onlyOwner() {\r\n        _baseTokenURI = baseURI;\r\n    }\r\n\r\n    function getPrice() public view returns (uint256){\r\n        return _price;\r\n    }\r\n\r\n\r\n    function pause(bool val) public onlyOwner() {\r\n        _paused = val;\r\n    }\r\n\r\n   function setVault(address _newVaultAddress) public onlyOwner() {\r\n        vault = _newVaultAddress;\r\n    }\r\n\r\n    function withdraw(uint256 _amount) public onlyOwner() {\r\n        require(address(vault) != address(0), 'no vault');\r\n        require(payable(vault).send(_amount));\r\n    }\r\n\r\n    function withdrawAll() public payable onlyOwner() {\r\n        require(address(vault) != address(0), 'no vault');\r\n        require(payable(vault).send(address(this).balance));\r\n    }\r\n}",
  "sourcePath": "C:\\Users\\Nathan\\Documents\\GitHub\\Augminted-website\\augminted-website\\augminted-contract\\contracts\\n0xAlphaArt.sol",
  "compiler": {
    "name": "solc",
    "version": "0.8.0+commit.c7dfd78e.Emscripten.clang"
  },
  "schemaVersion": "3.4.2",
  "updatedAt": "2021-08-10T20:07:50.633Z",
  "devdoc": {
    "kind": "dev",
    "methods": {
      "approve(address,uint256)": {
        "details": "See {IERC721-approve}."
      },
      "balanceOf(address)": {
        "details": "See {IERC721-balanceOf}."
      },
      "getApproved(uint256)": {
        "details": "See {IERC721-getApproved}."
      },
      "isApprovedForAll(address,address)": {
        "details": "See {IERC721-isApprovedForAll}."
      },
      "name()": {
        "details": "See {IERC721Metadata-name}."
      },
      "owner()": {
        "details": "Returns the address of the current owner."
      },
      "ownerOf(uint256)": {
        "details": "See {IERC721-ownerOf}."
      },
      "renounceOwnership()": {
        "details": "Leaves the contract without owner. It will not be possible to call `onlyOwner` functions anymore. Can only be called by the current owner. NOTE: Renouncing ownership will leave the contract without an owner, thereby removing any functionality that is only available to the owner."
      },
      "safeTransferFrom(address,address,uint256)": {
        "details": "See {IERC721-safeTransferFrom}."
      },
      "safeTransferFrom(address,address,uint256,bytes)": {
        "details": "See {IERC721-safeTransferFrom}."
      },
      "setApprovalForAll(address,bool)": {
        "details": "See {IERC721-setApprovalForAll}."
      },
      "supportsInterface(bytes4)": {
        "details": "See {IERC165-supportsInterface}."
      },
      "symbol()": {
        "details": "See {IERC721Metadata-symbol}."
      },
      "tokenByIndex(uint256)": {
        "details": "See {IERC721Enumerable-tokenByIndex}."
      },
      "tokenOfOwnerByIndex(address,uint256)": {
        "details": "See {IERC721Enumerable-tokenOfOwnerByIndex}."
      },
      "tokenURI(uint256)": {
        "details": "See {IERC721Metadata-tokenURI}."
      },
      "totalSupply()": {
        "details": "See {IERC721Enumerable-totalSupply}."
      },
      "transferFrom(address,address,uint256)": {
        "details": "See {IERC721-transferFrom}."
      },
      "transferOwnership(address)": {
        "details": "Transfers ownership of the contract to a new account (`newOwner`). Can only be called by the current owner."
      }
    },
    "version": 1
  },
  "userdoc": {
    "kind": "user",
    "methods": {},
    "version": 1
  }
}